{
  "contractName": "Election",
  "abi": [
    {
      "inputs": [],
      "payable": false,
      "stateMutability": "nonpayable",
      "type": "constructor"
    },
    {
      "anonymous": false,
      "inputs": [
        {
          "indexed": true,
          "internalType": "uint256",
          "name": "_candidateId",
          "type": "uint256"
        }
      ],
      "name": "votedEvent",
      "type": "event"
    },
    {
      "constant": true,
      "inputs": [],
      "name": "Owner",
      "outputs": [
        {
          "internalType": "address",
          "name": "",
          "type": "address"
        }
      ],
      "payable": false,
      "stateMutability": "view",
      "type": "function"
    },
    {
      "constant": true,
      "inputs": [
        {
          "internalType": "uint256",
          "name": "",
          "type": "uint256"
        }
      ],
      "name": "candidates",
      "outputs": [
        {
          "internalType": "uint256",
          "name": "id",
          "type": "uint256"
        },
        {
          "internalType": "string",
          "name": "name",
          "type": "string"
        },
        {
          "internalType": "uint256",
          "name": "sID",
          "type": "uint256"
        },
        {
          "internalType": "string",
          "name": "committee",
          "type": "string"
        },
        {
          "internalType": "uint256",
          "name": "voteCount",
          "type": "uint256"
        }
      ],
      "payable": false,
      "stateMutability": "view",
      "type": "function"
    },
    {
      "constant": true,
      "inputs": [],
      "name": "candidatesCount",
      "outputs": [
        {
          "internalType": "uint256",
          "name": "",
          "type": "uint256"
        }
      ],
      "payable": false,
      "stateMutability": "view",
      "type": "function"
    },
    {
      "constant": true,
      "inputs": [],
      "name": "electionName",
      "outputs": [
        {
          "internalType": "string",
          "name": "",
          "type": "string"
        }
      ],
      "payable": false,
      "stateMutability": "view",
      "type": "function"
    },
    {
      "constant": true,
      "inputs": [],
      "name": "totalVotes",
      "outputs": [
        {
          "internalType": "uint256",
          "name": "",
          "type": "uint256"
        }
      ],
      "payable": false,
      "stateMutability": "view",
      "type": "function"
    },
    {
      "constant": true,
      "inputs": [
        {
          "internalType": "address",
          "name": "",
          "type": "address"
        }
      ],
      "name": "voters",
      "outputs": [
        {
          "internalType": "bool",
          "name": "authorized",
          "type": "bool"
        },
        {
          "internalType": "bool",
          "name": "voted",
          "type": "bool"
        },
        {
          "internalType": "uint256",
          "name": "vote",
          "type": "uint256"
        }
      ],
      "payable": false,
      "stateMutability": "view",
      "type": "function"
    },
    {
      "constant": false,
      "inputs": [
        {
          "internalType": "address",
          "name": "_person",
          "type": "address"
        }
      ],
      "name": "authorize",
      "outputs": [],
      "payable": false,
      "stateMutability": "nonpayable",
      "type": "function"
    },
    {
      "constant": true,
      "inputs": [],
      "name": "getNumCandidates",
      "outputs": [
        {
          "internalType": "uint256",
          "name": "",
          "type": "uint256"
        }
      ],
      "payable": false,
      "stateMutability": "view",
      "type": "function"
    },
    {
      "constant": true,
      "inputs": [],
      "name": "getTotalVotes",
      "outputs": [
        {
          "internalType": "uint256",
          "name": "",
          "type": "uint256"
        }
      ],
      "payable": false,
      "stateMutability": "view",
      "type": "function"
    },
    {
      "constant": false,
      "inputs": [
        {
          "internalType": "string",
          "name": "_electionName",
          "type": "string"
        }
      ],
      "name": "setElectionName",
      "outputs": [],
      "payable": false,
      "stateMutability": "nonpayable",
      "type": "function"
    },
    {
      "constant": false,
      "inputs": [
        {
          "internalType": "uint256",
          "name": "_candidateId",
          "type": "uint256"
        }
      ],
      "name": "vote",
      "outputs": [],
      "payable": false,
      "stateMutability": "nonpayable",
      "type": "function"
    }
  ],
  "bytecode": "0x608060405234801561001057600080fd5b50336000806101000a81548173ffffffffffffffffffffffffffffffffffffffff021916908373ffffffffffffffffffffffffffffffffffffffff1602179055506100cf6040518060400160405280601781526020017f416d722041686d65642041626420456c205261686d616e00000000000000000081525062027b896040518060400160405280600a81526020017f536369656e74696669630000000000000000000000000000000000000000000081525061015260201b60201c565b61014d6040518060400160405280601a81526020017f4d6f6174617a2041686d65642041626420456c205261686d616e0000000000008152506202ca376040518060400160405280600581526020017f436c75627300000000000000000000000000000000000000000000000000000081525061015260201b60201c565b6102a8565b6003600081548092919060010191905055506040518060a00160405280600354815260200184815260200183815260200182815260200160008152506005600060035481526020019081526020016000206000820151816000015560208201518160010190805190602001906101c9929190610203565b506040820151816002015560608201518160030190805190602001906101f0929190610203565b5060808201518160040155905050505050565b828054600181600116156101000203166002900490600052602060002090601f016020900481019282601f1061024457805160ff1916838001178555610272565b82800160010185558215610272579182015b82811115610271578251825591602001919060010190610256565b5b50905061027f9190610283565b5090565b6102a591905b808211156102a1576000816000905550600101610289565b5090565b90565b610b26806102b76000396000f3fe608060405234801561001057600080fd5b50600436106100a95760003560e01c80635c06b06e116100715780635c06b06e146102fb57806385e8e7a7146103195780639a0e7d661461039c578063a3ec138d146103ba578063b4a99a4e14610428578063b6a5d7de14610472576100a9565b80630121b93f146100ae578063031a1374146100dc5780630d15fd77146101975780632d35a8a2146101b55780633477ee2e146101d3575b600080fd5b6100da600480360360208110156100c457600080fd5b81019080803590602001909291905050506104b6565b005b610195600480360360208110156100f257600080fd5b810190808035906020019064010000000081111561010f57600080fd5b82018360208201111561012157600080fd5b8035906020019184600183028401116401000000008311171561014357600080fd5b91908080601f016020809104026020016040519081016040528093929190818152602001838380828437600081840152601f19601f820116905080830192505050505050509192919290505050610695565b005b61019f610708565b6040518082815260200191505060405180910390f35b6101bd61070e565b6040518082815260200191505060405180910390f35b6101ff600480360360208110156101e957600080fd5b8101908080359060200190929190505050610714565b604051808681526020018060200185815260200180602001848152602001838103835287818151815260200191508051906020019080838360005b8381101561025557808201518184015260208101905061023a565b50505050905090810190601f1680156102825780820380516001836020036101000a031916815260200191505b50838103825285818151815260200191508051906020019080838360005b838110156102bb5780820151818401526020810190506102a0565b50505050905090810190601f1680156102e85780820380516001836020036101000a031916815260200191505b5097505050505050505060405180910390f35b61030361087a565b6040518082815260200191505060405180910390f35b610321610884565b6040518080602001828103825283818151815260200191508051906020019080838360005b83811015610361578082015181840152602081019050610346565b50505050905090810190601f16801561038e5780820380516001836020036101000a031916815260200191505b509250505060405180910390f35b6103a4610922565b6040518082815260200191505060405180910390f35b6103fc600480360360208110156103d057600080fd5b81019080803573ffffffffffffffffffffffffffffffffffffffff16906020019092919050505061092c565b604051808415151515815260200183151515158152602001828152602001935050505060405180910390f35b610430610970565b604051808273ffffffffffffffffffffffffffffffffffffffff1673ffffffffffffffffffffffffffffffffffffffff16815260200191505060405180910390f35b6104b46004803603602081101561048857600080fd5b81019080803573ffffffffffffffffffffffffffffffffffffffff169060200190929190505050610995565b005b600460003373ffffffffffffffffffffffffffffffffffffffff1673ffffffffffffffffffffffffffffffffffffffff16815260200190815260200160002060000160019054906101000a900460ff161561051057600080fd5b60011515600460003373ffffffffffffffffffffffffffffffffffffffff1673ffffffffffffffffffffffffffffffffffffffff16815260200190815260200160002060000160009054906101000a900460ff1615151461057057600080fd5b60008111801561058257506003548111155b61058b57600080fd5b6001600460003373ffffffffffffffffffffffffffffffffffffffff1673ffffffffffffffffffffffffffffffffffffffff16815260200190815260200160002060000160016101000a81548160ff02191690831515021790555080600460003373ffffffffffffffffffffffffffffffffffffffff1673ffffffffffffffffffffffffffffffffffffffff168152602001908152602001600020600101819055506005600082815260200190815260200160002060040160008154809291906001019190505550600260008154809291906001019190505550807ffff3c900d938d21d0990d786e819f29b8d05c1ef587b462b939609625b684b1660405160405180910390a250565b80600190805190602001906106ab929190610a4c565b506000809054906101000a900473ffffffffffffffffffffffffffffffffffffffff1673ffffffffffffffffffffffffffffffffffffffff163373ffffffffffffffffffffffffffffffffffffffff161461070557600080fd5b50565b60025481565b60035481565b6005602052806000526040600020600091509050806000015490806001018054600181600116156101000203166002900480601f0160208091040260200160405190810160405280929190818152602001828054600181600116156101000203166002900480156107c65780601f1061079b576101008083540402835291602001916107c6565b820191906000526020600020905b8154815290600101906020018083116107a957829003601f168201915b505050505090806002015490806003018054600181600116156101000203166002900480601f01602080910402602001604051908101604052809291908181526020018280546001816001161561010002031660029004801561086a5780601f1061083f5761010080835404028352916020019161086a565b820191906000526020600020905b81548152906001019060200180831161084d57829003601f168201915b5050505050908060040154905085565b6000600354905090565b60018054600181600116156101000203166002900480601f01602080910402602001604051908101604052809291908181526020018280546001816001161561010002031660029004801561091a5780601f106108ef5761010080835404028352916020019161091a565b820191906000526020600020905b8154815290600101906020018083116108fd57829003601f168201915b505050505081565b6000600254905090565b60046020528060005260406000206000915090508060000160009054906101000a900460ff16908060000160019054906101000a900460ff16908060010154905083565b6000809054906101000a900473ffffffffffffffffffffffffffffffffffffffff1681565b6001600460008373ffffffffffffffffffffffffffffffffffffffff1673ffffffffffffffffffffffffffffffffffffffff16815260200190815260200160002060000160006101000a81548160ff0219169083151502179055506000809054906101000a900473ffffffffffffffffffffffffffffffffffffffff1673ffffffffffffffffffffffffffffffffffffffff163373ffffffffffffffffffffffffffffffffffffffff1614610a4957600080fd5b50565b828054600181600116156101000203166002900490600052602060002090601f016020900481019282601f10610a8d57805160ff1916838001178555610abb565b82800160010185558215610abb579182015b82811115610aba578251825591602001919060010190610a9f565b5b509050610ac89190610acc565b5090565b610aee91905b80821115610aea576000816000905550600101610ad2565b5090565b9056fea265627a7a72315820e9263bf252eee1c76959f73250e5343503d77e9c1789e87703110bd49bd7e27e64736f6c63430005100032",
  "source": "pragma solidity ^0.5.0;\n//all rights reserved to Amr Ahmed Abd El Rahman\ncontract Election {\n\n    // Model a Candidate\n    struct Candidate {\n        uint id;\n        string name;\n        uint sID;\n        string committee;\n        uint voteCount;\n    }\n\n    // Model a Voter\n    struct Voter {\n        bool authorized;\n        bool voted;\n        uint vote;\n    }\n\n    // Owner of the deployed Smart Contract (Election)\n    address public Owner; \n\n    // Store Election name, in my case - BUE Student Union Election\n    string public electionName;\n\n    // Store total number of votes\n    uint public totalVotes;\n\n    // Store candidates Count\n    uint public candidatesCount;\n\n    // Store voter's ballot\n    mapping(address => Voter) public voters;\n\n    // Store Candidates\n    // Fetch Candidate\n    mapping(uint => Candidate) public candidates;\n\n     constructor() public {\n        Owner = msg.sender;\n        addCandidate(\"Amr Ahmed Abd El Rahman\", 162697, \"Scientific\");\n        addCandidate(\"Moataz Ahmed Abd El Rahman\", 182839, \"Clubs\");\n    }\n\n    // Person who is calling this function will be only the Owner of the contract\n    modifier ownerOnly(){\n        _;\n        require(msg.sender == Owner);\n    }\n\n    event votedEvent(uint indexed _candidateId);\n\n\n    // Person who is calling this function is the owner of the contract and will authorize voters to participate in the election\n    function authorize(address _person) ownerOnly public {\n        voters[_person].authorized = true;\n    }\n\n    function addCandidate (string memory _name, uint _UniqueID, string memory _committee) private {\n        candidatesCount ++;\n        candidates[candidatesCount] = Candidate(candidatesCount, _name, _UniqueID, _committee, 0);\n    }\n\n    // Return total number of candidates in my system\n    function getNumCandidates() public view returns(uint) {\n        return candidatesCount;\n    }\n\n    // Return total number of votes in my system\n    function getTotalVotes() public view returns(uint) {\n        return totalVotes;\n    }\n\n    function setElectionName(string memory _electionName) ownerOnly public{\n        electionName = _electionName;\n    }\n\n    // The most important function - casting a vote\n    function vote (uint _candidateId) public {\n\n        // Require that they haven't voted before\n        require(!voters[msg.sender].voted);\n\n        // Require voter to be authorized by the owner of the contract\n        require(voters[msg.sender].authorized == true);\n\n        // Require a valid candidate\n        require(_candidateId > 0 && _candidateId <= candidatesCount);\n\n        // Record that voter has voted\n        voters[msg.sender].voted = true;\n\n        // Store voter choice\n        voters[msg.sender].vote = _candidateId;\n\n        // Update candidate vote count\n        candidates[_candidateId].voteCount ++;\n        \n        // incrementing the total number of votes\n        totalVotes++;\n\n        emit votedEvent(_candidateId);\n    }\n}\n//all rights reserved to Amr Ahmed Abd El Rahman",
  "sourcePath": "/home/amr/Desktop/Seecured/election/contracts/Election.sol",
  "compiler": {
    "name": "solc",
    "version": "0.5.16+commit.9c3226ce.Emscripten.clang"
  },
  "schemaVersion": "3.0.23",
  "updatedAt": "2020-03-27T03:46:50.413Z",
  "networkType": "ethereum",
  "devdoc": {
    "methods": {}
  },
  "userdoc": {
    "methods": {}
  }
}