{
  "contractName": "Election",
  "abi": [
    {
      "inputs": [],
      "payable": false,
      "stateMutability": "nonpayable",
      "type": "constructor"
    },
    {
      "anonymous": false,
      "inputs": [
        {
          "indexed": true,
          "internalType": "uint256",
          "name": "_candidateId",
          "type": "uint256"
        }
      ],
      "name": "votedEvent",
      "type": "event"
    },
    {
      "anonymous": false,
      "inputs": [],
      "name": "winnerEvent",
      "type": "event"
    },
    {
      "constant": true,
      "inputs": [],
      "name": "Owner",
      "outputs": [
        {
          "internalType": "address",
          "name": "",
          "type": "address"
        }
      ],
      "payable": false,
      "stateMutability": "view",
      "type": "function"
    },
    {
      "constant": true,
      "inputs": [
        {
          "internalType": "uint256",
          "name": "",
          "type": "uint256"
        }
      ],
      "name": "candidates",
      "outputs": [
        {
          "internalType": "uint256",
          "name": "id",
          "type": "uint256"
        },
        {
          "internalType": "string",
          "name": "name",
          "type": "string"
        },
        {
          "internalType": "uint256",
          "name": "sID",
          "type": "uint256"
        },
        {
          "internalType": "string",
          "name": "committee",
          "type": "string"
        },
        {
          "internalType": "uint256",
          "name": "voteCount",
          "type": "uint256"
        }
      ],
      "payable": false,
      "stateMutability": "view",
      "type": "function"
    },
    {
      "constant": true,
      "inputs": [],
      "name": "candidatesCount",
      "outputs": [
        {
          "internalType": "uint256",
          "name": "",
          "type": "uint256"
        }
      ],
      "payable": false,
      "stateMutability": "view",
      "type": "function"
    },
    {
      "constant": true,
      "inputs": [],
      "name": "electionDate",
      "outputs": [
        {
          "internalType": "string",
          "name": "",
          "type": "string"
        }
      ],
      "payable": false,
      "stateMutability": "view",
      "type": "function"
    },
    {
      "constant": true,
      "inputs": [],
      "name": "electionName",
      "outputs": [
        {
          "internalType": "string",
          "name": "",
          "type": "string"
        }
      ],
      "payable": false,
      "stateMutability": "view",
      "type": "function"
    },
    {
      "constant": true,
      "inputs": [],
      "name": "electionWinner",
      "outputs": [
        {
          "internalType": "string",
          "name": "",
          "type": "string"
        }
      ],
      "payable": false,
      "stateMutability": "view",
      "type": "function"
    },
    {
      "constant": true,
      "inputs": [],
      "name": "totalVotes",
      "outputs": [
        {
          "internalType": "uint256",
          "name": "",
          "type": "uint256"
        }
      ],
      "payable": false,
      "stateMutability": "view",
      "type": "function"
    },
    {
      "constant": true,
      "inputs": [
        {
          "internalType": "address",
          "name": "",
          "type": "address"
        }
      ],
      "name": "voters",
      "outputs": [
        {
          "internalType": "bool",
          "name": "authorized",
          "type": "bool"
        },
        {
          "internalType": "bool",
          "name": "voted",
          "type": "bool"
        },
        {
          "internalType": "uint256",
          "name": "vote",
          "type": "uint256"
        }
      ],
      "payable": false,
      "stateMutability": "view",
      "type": "function"
    },
    {
      "constant": false,
      "inputs": [
        {
          "internalType": "address",
          "name": "_person",
          "type": "address"
        }
      ],
      "name": "authorize",
      "outputs": [],
      "payable": false,
      "stateMutability": "nonpayable",
      "type": "function"
    },
    {
      "constant": false,
      "inputs": [
        {
          "internalType": "string",
          "name": "_name",
          "type": "string"
        },
        {
          "internalType": "uint256",
          "name": "_UniqueID",
          "type": "uint256"
        },
        {
          "internalType": "string",
          "name": "_committee",
          "type": "string"
        }
      ],
      "name": "addCandidate",
      "outputs": [],
      "payable": false,
      "stateMutability": "nonpayable",
      "type": "function"
    },
    {
      "constant": false,
      "inputs": [
        {
          "internalType": "string",
          "name": "_electionName",
          "type": "string"
        }
      ],
      "name": "setElectionName",
      "outputs": [],
      "payable": false,
      "stateMutability": "nonpayable",
      "type": "function"
    },
    {
      "constant": false,
      "inputs": [
        {
          "internalType": "string",
          "name": "_electionDate",
          "type": "string"
        }
      ],
      "name": "setElectionEndDate",
      "outputs": [],
      "payable": false,
      "stateMutability": "nonpayable",
      "type": "function"
    },
    {
      "constant": true,
      "inputs": [],
      "name": "getNumCandidates",
      "outputs": [
        {
          "internalType": "uint256",
          "name": "",
          "type": "uint256"
        }
      ],
      "payable": false,
      "stateMutability": "view",
      "type": "function"
    },
    {
      "constant": true,
      "inputs": [],
      "name": "getTotalVotes",
      "outputs": [
        {
          "internalType": "uint256",
          "name": "",
          "type": "uint256"
        }
      ],
      "payable": false,
      "stateMutability": "view",
      "type": "function"
    },
    {
      "constant": true,
      "inputs": [],
      "name": "getOwner",
      "outputs": [
        {
          "internalType": "address",
          "name": "",
          "type": "address"
        }
      ],
      "payable": false,
      "stateMutability": "view",
      "type": "function"
    },
    {
      "constant": false,
      "inputs": [
        {
          "internalType": "uint256",
          "name": "_candidateId",
          "type": "uint256"
        }
      ],
      "name": "vote",
      "outputs": [],
      "payable": false,
      "stateMutability": "nonpayable",
      "type": "function"
    },
    {
      "constant": true,
      "inputs": [],
      "name": "winnerProposal",
      "outputs": [
        {
          "internalType": "uint256",
          "name": "_winnerID",
          "type": "uint256"
        }
      ],
      "payable": false,
      "stateMutability": "view",
      "type": "function"
    },
    {
      "constant": false,
      "inputs": [],
      "name": "winnerName",
      "outputs": [],
      "payable": false,
      "stateMutability": "nonpayable",
      "type": "function"
    },
    {
      "constant": false,
      "inputs": [],
      "name": "close",
      "outputs": [],
      "payable": false,
      "stateMutability": "nonpayable",
      "type": "function"
    }
  ],
  "bytecode": "0x60806040523480156200001157600080fd5b50336000806101000a81548173ffffffffffffffffffffffffffffffffffffffff021916908373ffffffffffffffffffffffffffffffffffffffff160217905550620000d26040518060400160405280601781526020017f416d722041686d65642041626420456c205261686d616e00000000000000000081525062027b896040518060400160405280600a81526020017f536369656e746966696300000000000000000000000000000000000000000000815250620001e460201b60201c565b620001526040518060400160405280601a81526020017f4d6f6174617a2041686d65642041626420456c205261686d616e0000000000008152506202ca376040518060400160405280600581526020017f436c756273000000000000000000000000000000000000000000000000000000815250620001e460201b60201c565b620001986040518060400160405280601a81526020017f4255452053747564656e7420556e696f6e20456c656374696f6e0000000000008152506200035c60201b60201c565b620001de6040518060400160405280600a81526020017f30382f32352f32303230000000000000000000000000000000000000000000008152506200043b60201b60201c565b62000650565b6004600081548092919060010191905055506040518060a00160405280600454815260200184815260200183815260200182815260200160008152506007600060045481526020019081526020016000206000820151816000015560208201518160010190805190602001906200025d9291906200051a565b50604082015181600201556060820151816003019080519060200190620002869291906200051a565b50608082015181600401559050506000809054906101000a900473ffffffffffffffffffffffffffffffffffffffff1673ffffffffffffffffffffffffffffffffffffffff163373ffffffffffffffffffffffffffffffffffffffff161462000357576040517f08c379a00000000000000000000000000000000000000000000000000000000081526004018080602001828103825260138152602001807f43616c6c6572206973206e6f74206f776e65720000000000000000000000000081525060200191505060405180910390fd5b505050565b806001908051906020019062000374929190620005a1565b506000809054906101000a900473ffffffffffffffffffffffffffffffffffffffff1673ffffffffffffffffffffffffffffffffffffffff163373ffffffffffffffffffffffffffffffffffffffff161462000438576040517f08c379a00000000000000000000000000000000000000000000000000000000081526004018080602001828103825260138152602001807f43616c6c6572206973206e6f74206f776e65720000000000000000000000000081525060200191505060405180910390fd5b50565b806002908051906020019062000453929190620005a1565b506000809054906101000a900473ffffffffffffffffffffffffffffffffffffffff1673ffffffffffffffffffffffffffffffffffffffff163373ffffffffffffffffffffffffffffffffffffffff161462000517576040517f08c379a00000000000000000000000000000000000000000000000000000000081526004018080602001828103825260138152602001807f43616c6c6572206973206e6f74206f776e65720000000000000000000000000081525060200191505060405180910390fd5b50565b828054600181600116156101000203166002900490600052602060002090601f016020900481019282601f106200055d57805160ff19168380011785556200058e565b828001600101855582156200058e579182015b828111156200058d57825182559160200191906001019062000570565b5b5090506200059d919062000628565b5090565b828054600181600116156101000203166002900490600052602060002090601f016020900481019282601f10620005e457805160ff191683800117855562000615565b8280016001018555821562000615579182015b8281111562000614578251825591602001919060010190620005f7565b5b50905062000624919062000628565b5090565b6200064d91905b80821115620006495760008160009055506001016200062f565b5090565b90565b61188980620006606000396000f3fe608060405234801561001057600080fd5b50600436106101215760003560e01c80635c06b06e116100ad578063a3ec138d11610071578063a3ec138d14610665578063b4a99a4e146106d3578063b6a5d7de1461071d578063e2ba53f014610761578063e74f92521461076b57610121565b80635c06b06e146104d95780635c46f876146104f757806385e8e7a71461057a578063893d20e8146105fd5780639a0e7d661461064757610121565b80632d35a8a2116100f45780632d35a8a2146102b05780633477ee2e146102ce5780633f1e6bfb146103f657806343d726d6146104b157806355256a0a146104bb57610121565b80630121b93f14610126578063031a1374146101545780630d15fd771461020f5780630e58a2491461022d575b600080fd5b6101526004803603602081101561013c57600080fd5b81019080803590602001909291905050506108c7565b005b61020d6004803603602081101561016a57600080fd5b810190808035906020019064010000000081111561018757600080fd5b82018360208201111561019957600080fd5b803590602001918460018302840111640100000000831117156101bb57600080fd5b91908080601f016020809104026020016040519081016040528093929190818152602001838380828437600081840152601f19601f820116905080830192505050505050509192919290505050610bc4565b005b610217610ca0565b6040518082815260200191505060405180910390f35b610235610ca6565b6040518080602001828103825283818151815260200191508051906020019080838360005b8381101561027557808201518184015260208101905061025a565b50505050905090810190601f1680156102a25780820380516001836020036101000a031916815260200191505b509250505060405180910390f35b6102b8610d44565b6040518082815260200191505060405180910390f35b6102fa600480360360208110156102e457600080fd5b8101908080359060200190929190505050610d4a565b604051808681526020018060200185815260200180602001848152602001838103835287818151815260200191508051906020019080838360005b83811015610350578082015181840152602081019050610335565b50505050905090810190601f16801561037d5780820380516001836020036101000a031916815260200191505b50838103825285818151815260200191508051906020019080838360005b838110156103b657808201518184015260208101905061039b565b50505050905090810190601f1680156103e35780820380516001836020036101000a031916815260200191505b5097505050505050505060405180910390f35b6104af6004803603602081101561040c57600080fd5b810190808035906020019064010000000081111561042957600080fd5b82018360208201111561043b57600080fd5b8035906020019184600183028401116401000000008311171561045d57600080fd5b91908080601f016020809104026020016040519081016040528093929190818152602001838380828437600081840152601f19601f820116905080830192505050505050509192919290505050610eb0565b005b6104b9610f8c565b005b6104c3610fa5565b6040518082815260200191505060405180910390f35b6104e16110cb565b6040518082815260200191505060405180910390f35b6104ff6110d5565b6040518080602001828103825283818151815260200191508051906020019080838360005b8381101561053f578082015181840152602081019050610524565b50505050905090810190601f16801561056c5780820380516001836020036101000a031916815260200191505b509250505060405180910390f35b610582611173565b6040518080602001828103825283818151815260200191508051906020019080838360005b838110156105c25780820151818401526020810190506105a7565b50505050905090810190601f1680156105ef5780820380516001836020036101000a031916815260200191505b509250505060405180910390f35b610605611211565b604051808273ffffffffffffffffffffffffffffffffffffffff1673ffffffffffffffffffffffffffffffffffffffff16815260200191505060405180910390f35b61064f61123a565b6040518082815260200191505060405180910390f35b6106a76004803603602081101561067b57600080fd5b81019080803573ffffffffffffffffffffffffffffffffffffffff169060200190929190505050611244565b604051808415151515815260200183151515158152602001828152602001935050505060405180910390f35b6106db611288565b604051808273ffffffffffffffffffffffffffffffffffffffff1673ffffffffffffffffffffffffffffffffffffffff16815260200191505060405180910390f35b61075f6004803603602081101561073357600080fd5b81019080803573ffffffffffffffffffffffffffffffffffffffff1690602001909291905050506112ad565b005b6107696113cd565b005b6108c56004803603606081101561078157600080fd5b810190808035906020019064010000000081111561079e57600080fd5b8201836020820111156107b057600080fd5b803590602001918460018302840111640100000000831117156107d257600080fd5b91908080601f016020809104026020016040519081016040528093929190818152602001838380828437600081840152601f19601f820116905080830192505050505050509192919290803590602001909291908035906020019064010000000081111561083f57600080fd5b82018360208201111561085157600080fd5b8035906020019184600183028401116401000000008311171561087357600080fd5b91908080601f016020809104026020016040519081016040528093929190818152602001838380828437600081840152601f19601f8201169050808301925050505050505091929192905050506114fc565b005b600660003373ffffffffffffffffffffffffffffffffffffffff1673ffffffffffffffffffffffffffffffffffffffff16815260200190815260200160002060000160019054906101000a900460ff161561098a576040517f08c379a00000000000000000000000000000000000000000000000000000000081526004018080602001828103825260158152602001807f557365722068617320766f746564206265666f7265000000000000000000000081525060200191505060405180910390fd5b60011515600660003373ffffffffffffffffffffffffffffffffffffffff1673ffffffffffffffffffffffffffffffffffffffff16815260200190815260200160002060000160009054906101000a900460ff16151514610a36576040517f08c379a000000000000000000000000000000000000000000000000000000000815260040180806020018281038252603981526020018061181c6039913960400191505060405180910390fd5b600081118015610a4857506004548111155b610aba576040517f08c379a000000000000000000000000000000000000000000000000000000000815260040180806020018281038252601e8152602001807f43616e6469646174652073656c656374696f6e20697320696e76616c6964000081525060200191505060405180910390fd5b6001600660003373ffffffffffffffffffffffffffffffffffffffff1673ffffffffffffffffffffffffffffffffffffffff16815260200190815260200160002060000160016101000a81548160ff02191690831515021790555080600660003373ffffffffffffffffffffffffffffffffffffffff1673ffffffffffffffffffffffffffffffffffffffff168152602001908152602001600020600101819055506007600082815260200190815260200160002060040160008154809291906001019190505550600360008154809291906001019190505550807ffff3c900d938d21d0990d786e819f29b8d05c1ef587b462b939609625b684b1660405160405180910390a250565b8060019080519060200190610bda92919061166f565b506000809054906101000a900473ffffffffffffffffffffffffffffffffffffffff1673ffffffffffffffffffffffffffffffffffffffff163373ffffffffffffffffffffffffffffffffffffffff1614610c9d576040517f08c379a00000000000000000000000000000000000000000000000000000000081526004018080602001828103825260138152602001807f43616c6c6572206973206e6f74206f776e65720000000000000000000000000081525060200191505060405180910390fd5b50565b60035481565b60058054600181600116156101000203166002900480601f016020809104026020016040519081016040528092919081815260200182805460018160011615610100020316600290048015610d3c5780601f10610d1157610100808354040283529160200191610d3c565b820191906000526020600020905b815481529060010190602001808311610d1f57829003601f168201915b505050505081565b60045481565b6007602052806000526040600020600091509050806000015490806001018054600181600116156101000203166002900480601f016020809104026020016040519081016040528092919081815260200182805460018160011615610100020316600290048015610dfc5780601f10610dd157610100808354040283529160200191610dfc565b820191906000526020600020905b815481529060010190602001808311610ddf57829003601f168201915b505050505090806002015490806003018054600181600116156101000203166002900480601f016020809104026020016040519081016040528092919081815260200182805460018160011615610100020316600290048015610ea05780601f10610e7557610100808354040283529160200191610ea0565b820191906000526020600020905b815481529060010190602001808311610e8357829003601f168201915b5050505050908060040154905085565b8060029080519060200190610ec692919061166f565b506000809054906101000a900473ffffffffffffffffffffffffffffffffffffffff1673ffffffffffffffffffffffffffffffffffffffff163373ffffffffffffffffffffffffffffffffffffffff1614610f89576040517f08c379a00000000000000000000000000000000000000000000000000000000081526004018080602001828103825260138152602001807f43616c6c6572206973206e6f74206f776e65720000000000000000000000000081525060200191505060405180910390fd5b50565b3373ffffffffffffffffffffffffffffffffffffffff16ff5b6000806000905060008090505b600454811015611004578160076000838152602001908152602001600020600401541115610ff757600760008281526020019081526020016000206004015491508092505b8080600101915050610fb2565b50506000809054906101000a900473ffffffffffffffffffffffffffffffffffffffff1673ffffffffffffffffffffffffffffffffffffffff163373ffffffffffffffffffffffffffffffffffffffff16146110c8576040517f08c379a00000000000000000000000000000000000000000000000000000000081526004018080602001828103825260138152602001807f43616c6c6572206973206e6f74206f776e65720000000000000000000000000081525060200191505060405180910390fd5b90565b6000600454905090565b60028054600181600116156101000203166002900480601f01602080910402602001604051908101604052809291908181526020018280546001816001161561010002031660029004801561116b5780601f106111405761010080835404028352916020019161116b565b820191906000526020600020905b81548152906001019060200180831161114e57829003601f168201915b505050505081565b60018054600181600116156101000203166002900480601f0160208091040260200160405190810160405280929190818152602001828054600181600116156101000203166002900480156112095780601f106111de57610100808354040283529160200191611209565b820191906000526020600020905b8154815290600101906020018083116111ec57829003601f168201915b505050505081565b60008060009054906101000a900473ffffffffffffffffffffffffffffffffffffffff16905090565b6000600354905090565b60066020528060005260406000206000915090508060000160009054906101000a900460ff16908060000160019054906101000a900460ff16908060010154905083565b6000809054906101000a900473ffffffffffffffffffffffffffffffffffffffff1681565b6001600660008373ffffffffffffffffffffffffffffffffffffffff1673ffffffffffffffffffffffffffffffffffffffff16815260200190815260200160002060000160006101000a81548160ff0219169083151502179055506000809054906101000a900473ffffffffffffffffffffffffffffffffffffffff1673ffffffffffffffffffffffffffffffffffffffff163373ffffffffffffffffffffffffffffffffffffffff16146113ca576040517f08c379a00000000000000000000000000000000000000000000000000000000081526004018080602001828103825260138152602001807f43616c6c6572206973206e6f74206f776e65720000000000000000000000000081525060200191505060405180910390fd5b50565b600760006113d9610fa5565b81526020019081526020016000206001016005908054600181600116156101000203166002900461140b9291906116ef565b507feed30c2ddcde54151e7357d88eebfe496a61baea3d6cedac426345f34698fcea60405160405180910390a16000809054906101000a900473ffffffffffffffffffffffffffffffffffffffff1673ffffffffffffffffffffffffffffffffffffffff163373ffffffffffffffffffffffffffffffffffffffff16146114fa576040517f08c379a00000000000000000000000000000000000000000000000000000000081526004018080602001828103825260138152602001807f43616c6c6572206973206e6f74206f776e65720000000000000000000000000081525060200191505060405180910390fd5b565b6004600081548092919060010191905055506040518060a0016040528060045481526020018481526020018381526020018281526020016000815250600760006004548152602001908152602001600020600082015181600001556020820151816001019080519060200190611573929190611776565b5060408201518160020155606082015181600301908051906020019061159a929190611776565b50608082015181600401559050506000809054906101000a900473ffffffffffffffffffffffffffffffffffffffff1673ffffffffffffffffffffffffffffffffffffffff163373ffffffffffffffffffffffffffffffffffffffff161461166a576040517f08c379a00000000000000000000000000000000000000000000000000000000081526004018080602001828103825260138152602001807f43616c6c6572206973206e6f74206f776e65720000000000000000000000000081525060200191505060405180910390fd5b505050565b828054600181600116156101000203166002900490600052602060002090601f016020900481019282601f106116b057805160ff19168380011785556116de565b828001600101855582156116de579182015b828111156116dd5782518255916020019190600101906116c2565b5b5090506116eb91906117f6565b5090565b828054600181600116156101000203166002900490600052602060002090601f016020900481019282601f106117285780548555611765565b8280016001018555821561176557600052602060002091601f016020900482015b82811115611764578254825591600101919060010190611749565b5b50905061177291906117f6565b5090565b828054600181600116156101000203166002900490600052602060002090601f016020900481019282601f106117b757805160ff19168380011785556117e5565b828001600101855582156117e5579182015b828111156117e45782518255916020019190600101906117c9565b5b5090506117f291906117f6565b5090565b61181891905b808211156118145760008160009055506001016117fc565b5090565b9056fe55736572206973206e6f7420656c696761626c6520746f20706172746963697061746520696e2074686520766f74696e672070726f63657373a265627a7a723158208dc2938c48847826c0fb553e483cdf47c0ff598c0327d7542e1b6bc581ff72f864736f6c63430005100032",
  "source": "pragma solidity ^0.5.0;\r\n\r\n\r\n//all rights reserved to Amr Ahmed Abd El Rahman\r\ncontract Election {\r\n    // Model a Candidate\r\n    struct Candidate {\r\n        uint256 id;\r\n        string name;\r\n        uint256 sID;\r\n        string committee;\r\n        uint256 voteCount;\r\n    }\r\n\r\n    // Model a Voter\r\n    struct Voter {\r\n        bool authorized;\r\n        bool voted;\r\n        uint256 vote;\r\n    }\r\n\r\n    // Owner of the deployed smart contract (Election)\r\n    address public Owner;\r\n\r\n    // Store election name, in my case - BUE Student Union Election\r\n    string public electionName;\r\n\r\n    // Store election end-date\r\n    string public electionDate;\r\n\r\n    // Store total number of votes\r\n    uint256 public totalVotes;\r\n\r\n    // Store candidates count\r\n    uint256 public candidatesCount;\r\n\r\n    // Store winner name\r\n    string public electionWinner;\r\n\r\n    // Store voter's ballot\r\n    mapping(address => Voter) public voters;\r\n\r\n    // Store Candidates\r\n    // Fetch Candidate\r\n    mapping(uint256 => Candidate) public candidates;\r\n\r\n    constructor() public {\r\n        Owner = msg.sender;\r\n        addCandidate(\"Amr Ahmed Abd El Rahman\", 162697, \"Scientific\");\r\n        addCandidate(\"Moataz Ahmed Abd El Rahman\", 182839, \"Clubs\");\r\n        setElectionName(\"BUE Student Union Election\");\r\n        setElectionEndDate(\"08/25/2020\");\r\n    }\r\n\r\n    // Person who is calling this function will be only the Owner of the contract\r\n    modifier ownerOnly() {\r\n        _;\r\n        require(msg.sender == Owner, \"Caller is not owner\");\r\n    }\r\n\r\n    // handling user vote through indexed event\r\n    event votedEvent(uint256 indexed _candidateId);\r\n\r\n    // handling winner announcing event \r\n    event winnerEvent();\r\n\r\n    // Person who is calling this function is the owner of the contract and will authorize voters to participate in the election\r\n    function authorize(address _person) public ownerOnly {\r\n        voters[_person].authorized = true;\r\n    }\r\n\r\n    function addCandidate(\r\n        string memory _name,\r\n        uint256 _UniqueID,\r\n        string memory _committee\r\n    ) public ownerOnly {\r\n        candidatesCount++;\r\n        candidates[candidatesCount] = Candidate(\r\n            candidatesCount,\r\n            _name,\r\n            _UniqueID,\r\n            _committee,\r\n            0\r\n        );\r\n    }\r\n\r\n    function setElectionName(string memory _electionName) public ownerOnly {\r\n        electionName = _electionName;\r\n    }\r\n\r\n    function setElectionEndDate(string memory _electionDate) public ownerOnly {\r\n        electionDate = _electionDate;\r\n    }\r\n\r\n    // Return total number of candidates\r\n    function getNumCandidates() public view returns (uint256) {\r\n        return candidatesCount;\r\n    }\r\n\r\n    // Return total number of votes\r\n    function getTotalVotes() public view returns (uint256) {\r\n        return totalVotes;\r\n    }\r\n\r\n    // Return Contract Owner Address\r\n    function getOwner() external view returns (address) {\r\n        return Owner;\r\n    }\r\n\r\n    // The most important function - casting a vote\r\n    function vote(uint256 _candidateId) public {\r\n        // Require that they haven't voted before\r\n        require(!voters[msg.sender].voted, \"User has voted before\");\r\n\r\n        // Require voter to be authorized by the owner of the contract\r\n        require(\r\n            voters[msg.sender].authorized == true,\r\n            \"User is not eligable to participate in the voting process\"\r\n        );\r\n\r\n        // Require a valid candidate\r\n        require(\r\n            _candidateId > 0 && _candidateId <= candidatesCount,\r\n            \"Candidate selection is invalid\"\r\n        );\r\n\r\n        // Record that voter has voted\r\n        voters[msg.sender].voted = true;\r\n\r\n        // Store voter choice\r\n        voters[msg.sender].vote = _candidateId;\r\n\r\n        // Update candidate vote count\r\n        candidates[_candidateId].voteCount++;\r\n\r\n        // incrementing the total number of votes\r\n        totalVotes++;\r\n\r\n        // handling voting interaction\r\n        emit votedEvent(_candidateId);\r\n    }\r\n\r\n    // counting total ballots for each candidate to get the ID of most voted candidate(winner)\r\n    function winnerProposal() public view ownerOnly returns (uint256 _winnerID) {\r\n        uint256 winingVoteCount = 0;\r\n        for (uint256 i = 0; i < candidatesCount; i++) {\r\n            if (candidates[i].voteCount > winingVoteCount) {\r\n                winingVoteCount = candidates[i].voteCount;\r\n                _winnerID = i;\r\n            }\r\n        }\r\n    }\r\n\r\n    // displaying the name of the winner\r\n    function winnerName() public ownerOnly {\r\n        electionWinner = candidates[winnerProposal()].name;\r\n        emit winnerEvent();\r\n    }\r\n    \r\n    // turning off the contract once the election has been finished\r\n    function close() public ownerOnly {\r\n        selfdestruct(msg.sender);\r\n    }\r\n}\r\n//all rights reserved to Amr Ahmed Abd El Rahman\r\n",
  "sourcePath": "C:\\Users\\Amr\\AndroidStudioProjects\\election\\contracts\\Election.sol",
  "compiler": {
    "name": "solc",
    "version": "0.5.16+commit.9c3226ce.Emscripten.clang"
  },
  "schemaVersion": "3.1.0",
  "updatedAt": "2020-06-26T21:40:02.726Z",
  "networkType": "ethereum",
  "devdoc": {
    "methods": {}
  },
  "userdoc": {
    "methods": {}
  }
}