{
  "contractName": "Election",
  "abi": [
    {
      "inputs": [],
      "payable": false,
      "stateMutability": "nonpayable",
      "type": "constructor"
    },
    {
      "anonymous": false,
      "inputs": [
        {
          "indexed": true,
          "internalType": "uint256",
          "name": "_candidateId",
          "type": "uint256"
        }
      ],
      "name": "votedEvent",
      "type": "event"
    },
    {
      "constant": true,
      "inputs": [],
      "name": "Owner",
      "outputs": [
        {
          "internalType": "address",
          "name": "",
          "type": "address"
        }
      ],
      "payable": false,
      "stateMutability": "view",
      "type": "function"
    },
    {
      "constant": true,
      "inputs": [
        {
          "internalType": "uint256",
          "name": "",
          "type": "uint256"
        }
      ],
      "name": "candidates",
      "outputs": [
        {
          "internalType": "uint256",
          "name": "id",
          "type": "uint256"
        },
        {
          "internalType": "string",
          "name": "name",
          "type": "string"
        },
        {
          "internalType": "uint256",
          "name": "sID",
          "type": "uint256"
        },
        {
          "internalType": "string",
          "name": "committee",
          "type": "string"
        },
        {
          "internalType": "uint256",
          "name": "voteCount",
          "type": "uint256"
        }
      ],
      "payable": false,
      "stateMutability": "view",
      "type": "function"
    },
    {
      "constant": true,
      "inputs": [],
      "name": "candidatesCount",
      "outputs": [
        {
          "internalType": "uint256",
          "name": "",
          "type": "uint256"
        }
      ],
      "payable": false,
      "stateMutability": "view",
      "type": "function"
    },
    {
      "constant": true,
      "inputs": [],
      "name": "electionDate",
      "outputs": [
        {
          "internalType": "string",
          "name": "",
          "type": "string"
        }
      ],
      "payable": false,
      "stateMutability": "view",
      "type": "function"
    },
    {
      "constant": true,
      "inputs": [],
      "name": "electionName",
      "outputs": [
        {
          "internalType": "string",
          "name": "",
          "type": "string"
        }
      ],
      "payable": false,
      "stateMutability": "view",
      "type": "function"
    },
    {
      "constant": true,
      "inputs": [],
      "name": "totalVotes",
      "outputs": [
        {
          "internalType": "uint256",
          "name": "",
          "type": "uint256"
        }
      ],
      "payable": false,
      "stateMutability": "view",
      "type": "function"
    },
    {
      "constant": true,
      "inputs": [
        {
          "internalType": "address",
          "name": "",
          "type": "address"
        }
      ],
      "name": "voters",
      "outputs": [
        {
          "internalType": "bool",
          "name": "authorized",
          "type": "bool"
        },
        {
          "internalType": "bool",
          "name": "voted",
          "type": "bool"
        },
        {
          "internalType": "uint256",
          "name": "vote",
          "type": "uint256"
        }
      ],
      "payable": false,
      "stateMutability": "view",
      "type": "function"
    },
    {
      "constant": false,
      "inputs": [
        {
          "internalType": "address",
          "name": "_person",
          "type": "address"
        }
      ],
      "name": "authorize",
      "outputs": [],
      "payable": false,
      "stateMutability": "nonpayable",
      "type": "function"
    },
    {
      "constant": false,
      "inputs": [
        {
          "internalType": "string",
          "name": "_name",
          "type": "string"
        },
        {
          "internalType": "uint256",
          "name": "_UniqueID",
          "type": "uint256"
        },
        {
          "internalType": "string",
          "name": "_committee",
          "type": "string"
        }
      ],
      "name": "addCandidate",
      "outputs": [],
      "payable": false,
      "stateMutability": "nonpayable",
      "type": "function"
    },
    {
      "constant": false,
      "inputs": [
        {
          "internalType": "string",
          "name": "_electionName",
          "type": "string"
        }
      ],
      "name": "setElectionName",
      "outputs": [],
      "payable": false,
      "stateMutability": "nonpayable",
      "type": "function"
    },
    {
      "constant": false,
      "inputs": [
        {
          "internalType": "string",
          "name": "_electionDate",
          "type": "string"
        }
      ],
      "name": "setElectionEndDate",
      "outputs": [],
      "payable": false,
      "stateMutability": "nonpayable",
      "type": "function"
    },
    {
      "constant": true,
      "inputs": [],
      "name": "getNumCandidates",
      "outputs": [
        {
          "internalType": "uint256",
          "name": "",
          "type": "uint256"
        }
      ],
      "payable": false,
      "stateMutability": "view",
      "type": "function"
    },
    {
      "constant": true,
      "inputs": [],
      "name": "getTotalVotes",
      "outputs": [
        {
          "internalType": "uint256",
          "name": "",
          "type": "uint256"
        }
      ],
      "payable": false,
      "stateMutability": "view",
      "type": "function"
    },
    {
      "constant": true,
      "inputs": [],
      "name": "getOwner",
      "outputs": [
        {
          "internalType": "address",
          "name": "",
          "type": "address"
        }
      ],
      "payable": false,
      "stateMutability": "view",
      "type": "function"
    },
    {
      "constant": false,
      "inputs": [
        {
          "internalType": "uint256",
          "name": "_candidateId",
          "type": "uint256"
        }
      ],
      "name": "vote",
      "outputs": [],
      "payable": false,
      "stateMutability": "nonpayable",
      "type": "function"
    },
    {
      "constant": true,
      "inputs": [],
      "name": "winnerProposal",
      "outputs": [
        {
          "internalType": "uint256",
          "name": "_winnerID",
          "type": "uint256"
        }
      ],
      "payable": false,
      "stateMutability": "view",
      "type": "function"
    },
    {
      "constant": true,
      "inputs": [],
      "name": "winnerName",
      "outputs": [
        {
          "internalType": "string",
          "name": "_winnerName",
          "type": "string"
        }
      ],
      "payable": false,
      "stateMutability": "view",
      "type": "function"
    },
    {
      "constant": false,
      "inputs": [],
      "name": "close",
      "outputs": [],
      "payable": false,
      "stateMutability": "nonpayable",
      "type": "function"
    }
  ],
  "bytecode": "0x60806040523480156200001157600080fd5b50336000806101000a81548173ffffffffffffffffffffffffffffffffffffffff021916908373ffffffffffffffffffffffffffffffffffffffff160217905550620000d26040518060400160405280601781526020017f416d722041686d65642041626420456c205261686d616e00000000000000000081525062027b896040518060400160405280600a81526020017f536369656e7469666963000000000000000000000000000000000000000000008152506200019e60201b60201c565b620001526040518060400160405280601a81526020017f4d6f6174617a2041686d65642041626420456c205261686d616e0000000000008152506202ca376040518060400160405280600581526020017f436c7562730000000000000000000000000000000000000000000000000000008152506200019e60201b60201c565b620001986040518060400160405280601a81526020017f4255452053747564656e7420556e696f6e20456c656374696f6e0000000000008152506200031660201b60201c565b6200052b565b6004600081548092919060010191905055506040518060a001604052806004548152602001848152602001838152602001828152602001600081525060066000600454815260200190815260200160002060008201518160000155602082015181600101908051906020019062000217929190620003f5565b5060408201518160020155606082015181600301908051906020019062000240929190620003f5565b50608082015181600401559050506000809054906101000a900473ffffffffffffffffffffffffffffffffffffffff1673ffffffffffffffffffffffffffffffffffffffff163373ffffffffffffffffffffffffffffffffffffffff161462000311576040517f08c379a00000000000000000000000000000000000000000000000000000000081526004018080602001828103825260138152602001807f43616c6c6572206973206e6f74206f776e65720000000000000000000000000081525060200191505060405180910390fd5b505050565b80600190805190602001906200032e9291906200047c565b506000809054906101000a900473ffffffffffffffffffffffffffffffffffffffff1673ffffffffffffffffffffffffffffffffffffffff163373ffffffffffffffffffffffffffffffffffffffff1614620003f2576040517f08c379a00000000000000000000000000000000000000000000000000000000081526004018080602001828103825260138152602001807f43616c6c6572206973206e6f74206f776e65720000000000000000000000000081525060200191505060405180910390fd5b50565b828054600181600116156101000203166002900490600052602060002090601f016020900481019282601f106200043857805160ff191683800117855562000469565b8280016001018555821562000469579182015b82811115620004685782518255916020019190600101906200044b565b5b50905062000478919062000503565b5090565b828054600181600116156101000203166002900490600052602060002090601f016020900481019282601f10620004bf57805160ff1916838001178555620004f0565b82800160010185558215620004f0579182015b82811115620004ef578251825591602001919060010190620004d2565b5b509050620004ff919062000503565b5090565b6200052891905b80821115620005245760008160009055506001016200050a565b5090565b90565b6116dd806200053b6000396000f3fe608060405234801561001057600080fd5b50600436106101165760003560e01c80635c46f876116100a2578063a3ec138d11610071578063a3ec138d146105d7578063b4a99a4e14610645578063b6a5d7de1461068f578063e2ba53f0146106d3578063e74f92521461075657610116565b80635c46f8761461046957806385e8e7a7146104ec578063893d20e81461056f5780639a0e7d66146105b957610116565b80633477ee2e116100e95780633477ee2e146102405780633f1e6bfb1461036857806343d726d61461042357806355256a0a1461042d5780635c06b06e1461044b57610116565b80630121b93f1461011b578063031a1374146101495780630d15fd77146102045780632d35a8a214610222575b600080fd5b6101476004803603602081101561013157600080fd5b81019080803590602001909291905050506108b2565b005b6102026004803603602081101561015f57600080fd5b810190808035906020019064010000000081111561017c57600080fd5b82018360208201111561018e57600080fd5b803590602001918460018302840111640100000000831117156101b057600080fd5b91908080601f016020809104026020016040519081016040528093929190818152602001838380828437600081840152601f19601f820116905080830192505050505050509192919290505050610baf565b005b61020c610c8b565b6040518082815260200191505060405180910390f35b61022a610c91565b6040518082815260200191505060405180910390f35b61026c6004803603602081101561025657600080fd5b8101908080359060200190929190505050610c97565b604051808681526020018060200185815260200180602001848152602001838103835287818151815260200191508051906020019080838360005b838110156102c25780820151818401526020810190506102a7565b50505050905090810190601f1680156102ef5780820380516001836020036101000a031916815260200191505b50838103825285818151815260200191508051906020019080838360005b8381101561032857808201518184015260208101905061030d565b50505050905090810190601f1680156103555780820380516001836020036101000a031916815260200191505b5097505050505050505060405180910390f35b6104216004803603602081101561037e57600080fd5b810190808035906020019064010000000081111561039b57600080fd5b8201836020820111156103ad57600080fd5b803590602001918460018302840111640100000000831117156103cf57600080fd5b91908080601f016020809104026020016040519081016040528093929190818152602001838380828437600081840152601f19601f820116905080830192505050505050509192919290505050610dfd565b005b61042b610ed9565b005b610435610ef2565b6040518082815260200191505060405180910390f35b610453611018565b6040518082815260200191505060405180910390f35b610471611022565b6040518080602001828103825283818151815260200191508051906020019080838360005b838110156104b1578082015181840152602081019050610496565b50505050905090810190601f1680156104de5780820380516001836020036101000a031916815260200191505b509250505060405180910390f35b6104f46110c0565b6040518080602001828103825283818151815260200191508051906020019080838360005b83811015610534578082015181840152602081019050610519565b50505050905090810190601f1680156105615780820380516001836020036101000a031916815260200191505b509250505060405180910390f35b61057761115e565b604051808273ffffffffffffffffffffffffffffffffffffffff1673ffffffffffffffffffffffffffffffffffffffff16815260200191505060405180910390f35b6105c1611187565b6040518082815260200191505060405180910390f35b610619600480360360208110156105ed57600080fd5b81019080803573ffffffffffffffffffffffffffffffffffffffff169060200190929190505050611191565b604051808415151515815260200183151515158152602001828152602001935050505060405180910390f35b61064d6111d5565b604051808273ffffffffffffffffffffffffffffffffffffffff1673ffffffffffffffffffffffffffffffffffffffff16815260200191505060405180910390f35b6106d1600480360360208110156106a557600080fd5b81019080803573ffffffffffffffffffffffffffffffffffffffff1690602001909291905050506111fa565b005b6106db61131a565b6040518080602001828103825283818151815260200191508051906020019080838360005b8381101561071b578082015181840152602081019050610700565b50505050905090810190601f1680156107485780820380516001836020036101000a031916815260200191505b509250505060405180910390f35b6108b06004803603606081101561076c57600080fd5b810190808035906020019064010000000081111561078957600080fd5b82018360208201111561079b57600080fd5b803590602001918460018302840111640100000000831117156107bd57600080fd5b91908080601f016020809104026020016040519081016040528093929190818152602001838380828437600081840152601f19601f820116905080830192505050505050509192919290803590602001909291908035906020019064010000000081111561082a57600080fd5b82018360208201111561083c57600080fd5b8035906020019184600183028401116401000000008311171561085e57600080fd5b91908080601f016020809104026020016040519081016040528093929190818152602001838380828437600081840152601f19601f8201169050808301925050505050505091929192905050506113d7565b005b600560003373ffffffffffffffffffffffffffffffffffffffff1673ffffffffffffffffffffffffffffffffffffffff16815260200190815260200160002060000160019054906101000a900460ff1615610975576040517f08c379a00000000000000000000000000000000000000000000000000000000081526004018080602001828103825260158152602001807f557365722068617320766f746564206265666f7265000000000000000000000081525060200191505060405180910390fd5b60011515600560003373ffffffffffffffffffffffffffffffffffffffff1673ffffffffffffffffffffffffffffffffffffffff16815260200190815260200160002060000160009054906101000a900460ff16151514610a21576040517f08c379a00000000000000000000000000000000000000000000000000000000081526004018080602001828103825260398152602001806116706039913960400191505060405180910390fd5b600081118015610a3357506004548111155b610aa5576040517f08c379a000000000000000000000000000000000000000000000000000000000815260040180806020018281038252601e8152602001807f43616e6469646174652073656c656374696f6e20697320696e76616c6964000081525060200191505060405180910390fd5b6001600560003373ffffffffffffffffffffffffffffffffffffffff1673ffffffffffffffffffffffffffffffffffffffff16815260200190815260200160002060000160016101000a81548160ff02191690831515021790555080600560003373ffffffffffffffffffffffffffffffffffffffff1673ffffffffffffffffffffffffffffffffffffffff168152602001908152602001600020600101819055506006600082815260200190815260200160002060040160008154809291906001019190505550600360008154809291906001019190505550807ffff3c900d938d21d0990d786e819f29b8d05c1ef587b462b939609625b684b1660405160405180910390a250565b8060019080519060200190610bc592919061154a565b506000809054906101000a900473ffffffffffffffffffffffffffffffffffffffff1673ffffffffffffffffffffffffffffffffffffffff163373ffffffffffffffffffffffffffffffffffffffff1614610c88576040517f08c379a00000000000000000000000000000000000000000000000000000000081526004018080602001828103825260138152602001807f43616c6c6572206973206e6f74206f776e65720000000000000000000000000081525060200191505060405180910390fd5b50565b60035481565b60045481565b6006602052806000526040600020600091509050806000015490806001018054600181600116156101000203166002900480601f016020809104026020016040519081016040528092919081815260200182805460018160011615610100020316600290048015610d495780601f10610d1e57610100808354040283529160200191610d49565b820191906000526020600020905b815481529060010190602001808311610d2c57829003601f168201915b505050505090806002015490806003018054600181600116156101000203166002900480601f016020809104026020016040519081016040528092919081815260200182805460018160011615610100020316600290048015610ded5780601f10610dc257610100808354040283529160200191610ded565b820191906000526020600020905b815481529060010190602001808311610dd057829003601f168201915b5050505050908060040154905085565b8060029080519060200190610e1392919061154a565b506000809054906101000a900473ffffffffffffffffffffffffffffffffffffffff1673ffffffffffffffffffffffffffffffffffffffff163373ffffffffffffffffffffffffffffffffffffffff1614610ed6576040517f08c379a00000000000000000000000000000000000000000000000000000000081526004018080602001828103825260138152602001807f43616c6c6572206973206e6f74206f776e65720000000000000000000000000081525060200191505060405180910390fd5b50565b3373ffffffffffffffffffffffffffffffffffffffff16ff5b6000806000905060008090505b600454811015610f51578160066000838152602001908152602001600020600401541115610f4457600660008281526020019081526020016000206004015491508092505b8080600101915050610eff565b50506000809054906101000a900473ffffffffffffffffffffffffffffffffffffffff1673ffffffffffffffffffffffffffffffffffffffff163373ffffffffffffffffffffffffffffffffffffffff1614611015576040517f08c379a00000000000000000000000000000000000000000000000000000000081526004018080602001828103825260138152602001807f43616c6c6572206973206e6f74206f776e65720000000000000000000000000081525060200191505060405180910390fd5b90565b6000600454905090565b60028054600181600116156101000203166002900480601f0160208091040260200160405190810160405280929190818152602001828054600181600116156101000203166002900480156110b85780601f1061108d576101008083540402835291602001916110b8565b820191906000526020600020905b81548152906001019060200180831161109b57829003601f168201915b505050505081565b60018054600181600116156101000203166002900480601f0160208091040260200160405190810160405280929190818152602001828054600181600116156101000203166002900480156111565780601f1061112b57610100808354040283529160200191611156565b820191906000526020600020905b81548152906001019060200180831161113957829003601f168201915b505050505081565b60008060009054906101000a900473ffffffffffffffffffffffffffffffffffffffff16905090565b6000600354905090565b60056020528060005260406000206000915090508060000160009054906101000a900460ff16908060000160019054906101000a900460ff16908060010154905083565b6000809054906101000a900473ffffffffffffffffffffffffffffffffffffffff1681565b6001600560008373ffffffffffffffffffffffffffffffffffffffff1673ffffffffffffffffffffffffffffffffffffffff16815260200190815260200160002060000160006101000a81548160ff0219169083151502179055506000809054906101000a900473ffffffffffffffffffffffffffffffffffffffff1673ffffffffffffffffffffffffffffffffffffffff163373ffffffffffffffffffffffffffffffffffffffff1614611317576040517f08c379a00000000000000000000000000000000000000000000000000000000081526004018080602001828103825260138152602001807f43616c6c6572206973206e6f74206f776e65720000000000000000000000000081525060200191505060405180910390fd5b50565b606060066000611328610ef2565b81526020019081526020016000206001018054600181600116156101000203166002900480601f0160208091040260200160405190810160405280929190818152602001828054600181600116156101000203166002900480156113cd5780601f106113a2576101008083540402835291602001916113cd565b820191906000526020600020905b8154815290600101906020018083116113b057829003601f168201915b5050505050905090565b6004600081548092919060010191905055506040518060a001604052806004548152602001848152602001838152602001828152602001600081525060066000600454815260200190815260200160002060008201518160000155602082015181600101908051906020019061144e9291906115ca565b506040820151816002015560608201518160030190805190602001906114759291906115ca565b50608082015181600401559050506000809054906101000a900473ffffffffffffffffffffffffffffffffffffffff1673ffffffffffffffffffffffffffffffffffffffff163373ffffffffffffffffffffffffffffffffffffffff1614611545576040517f08c379a00000000000000000000000000000000000000000000000000000000081526004018080602001828103825260138152602001807f43616c6c6572206973206e6f74206f776e65720000000000000000000000000081525060200191505060405180910390fd5b505050565b828054600181600116156101000203166002900490600052602060002090601f016020900481019282601f1061158b57805160ff19168380011785556115b9565b828001600101855582156115b9579182015b828111156115b857825182559160200191906001019061159d565b5b5090506115c6919061164a565b5090565b828054600181600116156101000203166002900490600052602060002090601f016020900481019282601f1061160b57805160ff1916838001178555611639565b82800160010185558215611639579182015b8281111561163857825182559160200191906001019061161d565b5b509050611646919061164a565b5090565b61166c91905b80821115611668576000816000905550600101611650565b5090565b9056fe55736572206973206e6f7420656c696761626c6520746f20706172746963697061746520696e2074686520766f74696e672070726f63657373a265627a7a72315820d06aa5260065df48aaa38501129735ea297e649c678f7f26c0aa3c2348764e3764736f6c63430005100032",
  "source": "pragma solidity ^0.5.0;\n\n\n//all rights reserved to Amr Ahmed Abd El Rahman\ncontract Election {\n    // Model a Candidate\n    struct Candidate {\n        uint256 id;\n        string name;\n        uint256 sID;\n        string committee;\n        uint256 voteCount;\n    }\n\n    // Model a Voter\n    struct Voter {\n        bool authorized;\n        bool voted;\n        uint256 vote;\n    }\n\n    // Owner of the deployed Smart Contract (Election)\n    address public Owner;\n\n    // Store Election name, in my case - BUE Student Union Election\n    string public electionName;\n\n    // Store Election EndDate\n    string public electionDate;\n\n    // Store total number of votes\n    uint256 public totalVotes;\n\n    // Store candidates Count\n    uint256 public candidatesCount;\n\n    // Store voter's ballot\n    mapping(address => Voter) public voters;\n\n    // Store Candidates\n    // Fetch Candidate\n    mapping(uint256 => Candidate) public candidates;\n\n    constructor() public {\n        Owner = msg.sender;\n        addCandidate(\"Amr Ahmed Abd El Rahman\", 162697, \"Scientific\");\n        addCandidate(\"Moataz Ahmed Abd El Rahman\", 182839, \"Clubs\");\n        setElectionName(\"BUE Student Union Election\");\n    }\n\n    // Person who is calling this function will be only the Owner of the contract\n    modifier ownerOnly() {\n        _;\n        require(msg.sender == Owner, \"Caller is not owner\");\n    }\n\n    event votedEvent(uint256 indexed _candidateId);\n\n    // Person who is calling this function is the owner of the contract and will authorize voters to participate in the election\n    function authorize(address _person) public ownerOnly {\n        voters[_person].authorized = true;\n    }\n\n    function addCandidate(\n        string memory _name,\n        uint256 _UniqueID,\n        string memory _committee\n    ) public ownerOnly {\n        candidatesCount++;\n        candidates[candidatesCount] = Candidate(\n            candidatesCount,\n            _name,\n            _UniqueID,\n            _committee,\n            0\n        );\n    }\n\n    function setElectionName(string memory _electionName) public ownerOnly {\n        electionName = _electionName;\n    }\n\n    function setElectionEndDate(string memory _electionDate) public ownerOnly {\n        electionDate = _electionDate;\n    }\n\n    // Return total number of candidates\n    function getNumCandidates() public view returns (uint256) {\n        return candidatesCount;\n    }\n\n    // Return total number of votes\n    function getTotalVotes() public view returns (uint256) {\n        return totalVotes;\n    }\n\n    // Return Contract Owner Address\n    function getOwner() external view returns (address) {\n        return Owner;\n    }\n\n    // The most important function - casting a vote\n    function vote(uint256 _candidateId) public {\n        // Require that they haven't voted before\n        require(!voters[msg.sender].voted, \"User has voted before\");\n\n        // Require voter to be authorized by the owner of the contract\n        require(\n            voters[msg.sender].authorized == true,\n            \"User is not eligable to participate in the voting process\"\n        );\n\n        // Require a valid candidate\n        require(\n            _candidateId > 0 && _candidateId <= candidatesCount,\n            \"Candidate selection is invalid\"\n        );\n\n        // Record that voter has voted\n        voters[msg.sender].voted = true;\n\n        // Store voter choice\n        voters[msg.sender].vote = _candidateId;\n\n        // Update candidate vote count\n        candidates[_candidateId].voteCount++;\n\n        // incrementing the total number of votes\n        totalVotes++;\n\n        // handling voting interaction\n        emit votedEvent(_candidateId);\n    }\n\n    // counting total ballots for each candidate to get the ID of most voted candidate(winner)\n    function winnerProposal() public view ownerOnly returns (uint256 _winnerID) {\n        uint256 winingVoteCount = 0;\n        for (uint256 i = 0; i < candidatesCount; i++) {\n            if (candidates[i].voteCount > winingVoteCount) {\n                winingVoteCount = candidates[i].voteCount;\n                _winnerID = i;\n            }\n        }\n    }\n\n    // displaying the name of the winner\n    function winnerName() public view returns (string memory _winnerName) {\n        _winnerName = candidates[winnerProposal()].name;\n    }\n\n    // turning off the contract once the election has been finished\n    function close() public ownerOnly {\n        selfdestruct(msg.sender);\n    }\n}\n//all rights reserved to Amr Ahmed Abd El Rahman\n",
  "sourcePath": "/home/amr/Desktop/Seecured/election/contracts/Election.sol",
  "compiler": {
    "name": "solc",
    "version": "0.5.16+commit.9c3226ce.Emscripten.clang"
  },
  "schemaVersion": "3.0.23",
  "updatedAt": "2020-06-06T11:42:01.149Z",
  "networkType": "ethereum",
  "devdoc": {
    "methods": {}
  },
  "userdoc": {
    "methods": {}
  }
}