{
  "contractName": "Election",
  "abi": [
    {
      "inputs": [],
      "payable": false,
      "stateMutability": "nonpayable",
      "type": "constructor"
    },
    {
      "anonymous": false,
      "inputs": [
        {
          "indexed": true,
          "internalType": "uint256",
          "name": "_candidateId",
          "type": "uint256"
        }
      ],
      "name": "votedEvent",
      "type": "event"
    },
    {
      "constant": true,
      "inputs": [],
      "name": "Owner",
      "outputs": [
        {
          "internalType": "address",
          "name": "",
          "type": "address"
        }
      ],
      "payable": false,
      "stateMutability": "view",
      "type": "function"
    },
    {
      "constant": true,
      "inputs": [
        {
          "internalType": "uint256",
          "name": "",
          "type": "uint256"
        }
      ],
      "name": "candidates",
      "outputs": [
        {
          "internalType": "uint256",
          "name": "id",
          "type": "uint256"
        },
        {
          "internalType": "string",
          "name": "name",
          "type": "string"
        },
        {
          "internalType": "uint256",
          "name": "sID",
          "type": "uint256"
        },
        {
          "internalType": "string",
          "name": "committee",
          "type": "string"
        },
        {
          "internalType": "uint256",
          "name": "voteCount",
          "type": "uint256"
        }
      ],
      "payable": false,
      "stateMutability": "view",
      "type": "function"
    },
    {
      "constant": true,
      "inputs": [],
      "name": "candidatesCount",
      "outputs": [
        {
          "internalType": "uint256",
          "name": "",
          "type": "uint256"
        }
      ],
      "payable": false,
      "stateMutability": "view",
      "type": "function"
    },
    {
      "constant": true,
      "inputs": [],
      "name": "electionName",
      "outputs": [
        {
          "internalType": "string",
          "name": "",
          "type": "string"
        }
      ],
      "payable": false,
      "stateMutability": "view",
      "type": "function"
    },
    {
      "constant": true,
      "inputs": [],
      "name": "totalVotes",
      "outputs": [
        {
          "internalType": "uint256",
          "name": "",
          "type": "uint256"
        }
      ],
      "payable": false,
      "stateMutability": "view",
      "type": "function"
    },
    {
      "constant": true,
      "inputs": [
        {
          "internalType": "address",
          "name": "",
          "type": "address"
        }
      ],
      "name": "voters",
      "outputs": [
        {
          "internalType": "bool",
          "name": "authorized",
          "type": "bool"
        },
        {
          "internalType": "bool",
          "name": "voted",
          "type": "bool"
        },
        {
          "internalType": "uint256",
          "name": "vote",
          "type": "uint256"
        }
      ],
      "payable": false,
      "stateMutability": "view",
      "type": "function"
    },
    {
      "constant": false,
      "inputs": [
        {
          "internalType": "address",
          "name": "_person",
          "type": "address"
        }
      ],
      "name": "authorize",
      "outputs": [],
      "payable": false,
      "stateMutability": "nonpayable",
      "type": "function"
    },
    {
      "constant": false,
      "inputs": [
        {
          "internalType": "string",
          "name": "_name",
          "type": "string"
        },
        {
          "internalType": "uint256",
          "name": "_UniqueID",
          "type": "uint256"
        },
        {
          "internalType": "string",
          "name": "_committee",
          "type": "string"
        }
      ],
      "name": "addCandidate",
      "outputs": [],
      "payable": false,
      "stateMutability": "nonpayable",
      "type": "function"
    },
    {
      "constant": true,
      "inputs": [],
      "name": "getNumCandidates",
      "outputs": [
        {
          "internalType": "uint256",
          "name": "",
          "type": "uint256"
        }
      ],
      "payable": false,
      "stateMutability": "view",
      "type": "function"
    },
    {
      "constant": true,
      "inputs": [],
      "name": "getTotalVotes",
      "outputs": [
        {
          "internalType": "uint256",
          "name": "",
          "type": "uint256"
        }
      ],
      "payable": false,
      "stateMutability": "view",
      "type": "function"
    },
    {
      "constant": false,
      "inputs": [
        {
          "internalType": "string",
          "name": "_electionName",
          "type": "string"
        }
      ],
      "name": "setElectionName",
      "outputs": [],
      "payable": false,
      "stateMutability": "nonpayable",
      "type": "function"
    },
    {
      "constant": false,
      "inputs": [
        {
          "internalType": "uint256",
          "name": "_candidateId",
          "type": "uint256"
        }
      ],
      "name": "vote",
      "outputs": [],
      "payable": false,
      "stateMutability": "nonpayable",
      "type": "function"
    }
  ],
  "bytecode": "0x60806040523480156200001157600080fd5b50336000806101000a81548173ffffffffffffffffffffffffffffffffffffffff021916908373ffffffffffffffffffffffffffffffffffffffff160217905550620000d26040518060400160405280601781526020017f416d722041686d65642041626420456c205261686d616e00000000000000000081525062027b896040518060400160405280600a81526020017f536369656e7469666963000000000000000000000000000000000000000000008152506200015860201b60201c565b620001526040518060400160405280601a81526020017f4d6f6174617a2041686d65642041626420456c205261686d616e0000000000008152506202ca376040518060400160405280600581526020017f436c7562730000000000000000000000000000000000000000000000000000008152506200015860201b60201c565b62000316565b6003600081548092919060010191905055506040518060a0016040528060035481526020018481526020018381526020018281526020016000815250600560006003548152602001908152602001600020600082015181600001556020820151816001019080519060200190620001d192919062000267565b50604082015181600201556060820151816003019080519060200190620001fa92919062000267565b50608082015181600401559050506000809054906101000a900473ffffffffffffffffffffffffffffffffffffffff1673ffffffffffffffffffffffffffffffffffffffff163373ffffffffffffffffffffffffffffffffffffffff16146200026257600080fd5b505050565b828054600181600116156101000203166002900490600052602060002090601f016020900481019282601f10620002aa57805160ff1916838001178555620002db565b82800160010185558215620002db579182015b82811115620002da578251825591602001919060010190620002bd565b5b509050620002ea9190620002ee565b5090565b6200031391905b808211156200030f576000816000905550600101620002f5565b5090565b90565b610e1780620003266000396000f3fe608060405234801561001057600080fd5b50600436106100b45760003560e01c806385e8e7a71161007157806385e8e7a7146103245780639a0e7d66146103a7578063a3ec138d146103c5578063b4a99a4e14610433578063b6a5d7de1461047d578063e74f9252146104c1576100b4565b80630121b93f146100b9578063031a1374146100e75780630d15fd77146101a25780632d35a8a2146101c05780633477ee2e146101de5780635c06b06e14610306575b600080fd5b6100e5600480360360208110156100cf57600080fd5b810190808035906020019092919050505061061d565b005b6101a0600480360360208110156100fd57600080fd5b810190808035906020019064010000000081111561011a57600080fd5b82018360208201111561012c57600080fd5b8035906020019184600183028401116401000000008311171561014e57600080fd5b91908080601f016020809104026020016040519081016040528093929190818152602001838380828437600081840152601f19601f8201169050808301925050505050505091929192905050506107fc565b005b6101aa61086f565b6040518082815260200191505060405180910390f35b6101c8610875565b6040518082815260200191505060405180910390f35b61020a600480360360208110156101f457600080fd5b810190808035906020019092919050505061087b565b604051808681526020018060200185815260200180602001848152602001838103835287818151815260200191508051906020019080838360005b83811015610260578082015181840152602081019050610245565b50505050905090810190601f16801561028d5780820380516001836020036101000a031916815260200191505b50838103825285818151815260200191508051906020019080838360005b838110156102c65780820151818401526020810190506102ab565b50505050905090810190601f1680156102f35780820380516001836020036101000a031916815260200191505b5097505050505050505060405180910390f35b61030e6109e1565b6040518082815260200191505060405180910390f35b61032c6109eb565b6040518080602001828103825283818151815260200191508051906020019080838360005b8381101561036c578082015181840152602081019050610351565b50505050905090810190601f1680156103995780820380516001836020036101000a031916815260200191505b509250505060405180910390f35b6103af610a89565b6040518082815260200191505060405180910390f35b610407600480360360208110156103db57600080fd5b81019080803573ffffffffffffffffffffffffffffffffffffffff169060200190929190505050610a93565b604051808415151515815260200183151515158152602001828152602001935050505060405180910390f35b61043b610ad7565b604051808273ffffffffffffffffffffffffffffffffffffffff1673ffffffffffffffffffffffffffffffffffffffff16815260200191505060405180910390f35b6104bf6004803603602081101561049357600080fd5b81019080803573ffffffffffffffffffffffffffffffffffffffff169060200190929190505050610afc565b005b61061b600480360360608110156104d757600080fd5b81019080803590602001906401000000008111156104f457600080fd5b82018360208201111561050657600080fd5b8035906020019184600183028401116401000000008311171561052857600080fd5b91908080601f016020809104026020016040519081016040528093929190818152602001838380828437600081840152601f19601f820116905080830192505050505050509192919290803590602001909291908035906020019064010000000081111561059557600080fd5b8201836020820111156105a757600080fd5b803590602001918460018302840111640100000000831117156105c957600080fd5b91908080601f016020809104026020016040519081016040528093929190818152602001838380828437600081840152601f19601f820116905080830192505050505050509192919290505050610bb3565b005b600460003373ffffffffffffffffffffffffffffffffffffffff1673ffffffffffffffffffffffffffffffffffffffff16815260200190815260200160002060000160019054906101000a900460ff161561067757600080fd5b60011515600460003373ffffffffffffffffffffffffffffffffffffffff1673ffffffffffffffffffffffffffffffffffffffff16815260200190815260200160002060000160009054906101000a900460ff161515146106d757600080fd5b6000811180156106e957506003548111155b6106f257600080fd5b6001600460003373ffffffffffffffffffffffffffffffffffffffff1673ffffffffffffffffffffffffffffffffffffffff16815260200190815260200160002060000160016101000a81548160ff02191690831515021790555080600460003373ffffffffffffffffffffffffffffffffffffffff1673ffffffffffffffffffffffffffffffffffffffff168152602001908152602001600020600101819055506005600082815260200190815260200160002060040160008154809291906001019190505550600260008154809291906001019190505550807ffff3c900d938d21d0990d786e819f29b8d05c1ef587b462b939609625b684b1660405160405180910390a250565b8060019080519060200190610812929190610cbd565b506000809054906101000a900473ffffffffffffffffffffffffffffffffffffffff1673ffffffffffffffffffffffffffffffffffffffff163373ffffffffffffffffffffffffffffffffffffffff161461086c57600080fd5b50565b60025481565b60035481565b6005602052806000526040600020600091509050806000015490806001018054600181600116156101000203166002900480601f01602080910402602001604051908101604052809291908181526020018280546001816001161561010002031660029004801561092d5780601f106109025761010080835404028352916020019161092d565b820191906000526020600020905b81548152906001019060200180831161091057829003601f168201915b505050505090806002015490806003018054600181600116156101000203166002900480601f0160208091040260200160405190810160405280929190818152602001828054600181600116156101000203166002900480156109d15780601f106109a6576101008083540402835291602001916109d1565b820191906000526020600020905b8154815290600101906020018083116109b457829003601f168201915b5050505050908060040154905085565b6000600354905090565b60018054600181600116156101000203166002900480601f016020809104026020016040519081016040528092919081815260200182805460018160011615610100020316600290048015610a815780601f10610a5657610100808354040283529160200191610a81565b820191906000526020600020905b815481529060010190602001808311610a6457829003601f168201915b505050505081565b6000600254905090565b60046020528060005260406000206000915090508060000160009054906101000a900460ff16908060000160019054906101000a900460ff16908060010154905083565b6000809054906101000a900473ffffffffffffffffffffffffffffffffffffffff1681565b6001600460008373ffffffffffffffffffffffffffffffffffffffff1673ffffffffffffffffffffffffffffffffffffffff16815260200190815260200160002060000160006101000a81548160ff0219169083151502179055506000809054906101000a900473ffffffffffffffffffffffffffffffffffffffff1673ffffffffffffffffffffffffffffffffffffffff163373ffffffffffffffffffffffffffffffffffffffff1614610bb057600080fd5b50565b6003600081548092919060010191905055506040518060a0016040528060035481526020018481526020018381526020018281526020016000815250600560006003548152602001908152602001600020600082015181600001556020820151816001019080519060200190610c2a929190610d3d565b50604082015181600201556060820151816003019080519060200190610c51929190610d3d565b50608082015181600401559050506000809054906101000a900473ffffffffffffffffffffffffffffffffffffffff1673ffffffffffffffffffffffffffffffffffffffff163373ffffffffffffffffffffffffffffffffffffffff1614610cb857600080fd5b505050565b828054600181600116156101000203166002900490600052602060002090601f016020900481019282601f10610cfe57805160ff1916838001178555610d2c565b82800160010185558215610d2c579182015b82811115610d2b578251825591602001919060010190610d10565b5b509050610d399190610dbd565b5090565b828054600181600116156101000203166002900490600052602060002090601f016020900481019282601f10610d7e57805160ff1916838001178555610dac565b82800160010185558215610dac579182015b82811115610dab578251825591602001919060010190610d90565b5b509050610db99190610dbd565b5090565b610ddf91905b80821115610ddb576000816000905550600101610dc3565b5090565b9056fea265627a7a72315820407d5c950b8832d9532944090748ff194c4fb1efc97b8484fc99c663631c1b6364736f6c63430005100032",
  "source": "pragma solidity ^0.5.0;\n//all rights reserved to Amr Ahmed Abd El Rahman\ncontract Election {\n\n    // Model a Candidate\n    struct Candidate {\n        uint id;\n        string name;\n        uint sID;\n        string committee;\n        uint voteCount;\n    }\n\n    // Model a Voter\n    struct Voter {\n        bool authorized;\n        bool voted;\n        uint vote;\n    }\n\n    // Owner of the deployed Smart Contract (Election)\n    address public Owner; \n\n    // Store Election name, in my case - BUE Student Union Election\n    string public electionName;\n\n    // Store total number of votes\n    uint public totalVotes;\n\n    // Store candidates Count\n    uint public candidatesCount;\n\n    // Store voter's ballot\n    mapping(address => Voter) public voters;\n\n    // Store Candidates\n    // Fetch Candidate\n    mapping(uint => Candidate) public candidates;\n\n     constructor() public {\n        Owner = msg.sender;\n        addCandidate(\"Amr Ahmed Abd El Rahman\", 162697, \"Scientific\");\n        addCandidate(\"Moataz Ahmed Abd El Rahman\", 182839, \"Clubs\");\n    }\n\n    // Person who is calling this function will be only the Owner of the contract\n    modifier ownerOnly(){\n        _;\n        require(msg.sender == Owner);\n    }\n\n    event votedEvent(uint indexed _candidateId);\n\n\n    // Person who is calling this function is the owner of the contract and will authorize voters to participate in the election\n    function authorize(address _person) ownerOnly public {\n        voters[_person].authorized = true;\n    }\n\n    function addCandidate (string memory _name, uint _UniqueID, string memory _committee) ownerOnly public{\n        candidatesCount ++;\n        candidates[candidatesCount] = Candidate(candidatesCount, _name, _UniqueID, _committee, 0);\n    }\n\n    // Return total number of candidates in my system\n    function getNumCandidates() public view returns(uint) {\n        return candidatesCount;\n    }\n\n    // Return total number of votes in my system\n    function getTotalVotes() public view returns(uint) {\n        return totalVotes;\n    }\n\n    function setElectionName(string memory _electionName) ownerOnly public{\n        electionName = _electionName;\n    }\n\n    // The most important function - casting a vote\n    function vote (uint _candidateId) public {\n\n        // Require that they haven't voted before\n        require(!voters[msg.sender].voted);\n\n        // Require voter to be authorized by the owner of the contract\n        require(voters[msg.sender].authorized == true);\n\n        // Require a valid candidate\n        require(_candidateId > 0 && _candidateId <= candidatesCount);\n\n        // Record that voter has voted\n        voters[msg.sender].voted = true;\n\n        // Store voter choice\n        voters[msg.sender].vote = _candidateId;\n\n        // Update candidate vote count\n        candidates[_candidateId].voteCount ++;\n        \n        // incrementing the total number of votes\n        totalVotes++;\n\n        // handling voting interaction\n        emit votedEvent(_candidateId);\n    }\n}\n//all rights reserved to Amr Ahmed Abd El Rahman",
  "sourcePath": "/home/amr/Desktop/Seecured/election/contracts/Election.sol",
  "compiler": {
    "name": "solc",
    "version": "0.5.16+commit.9c3226ce.Emscripten.clang"
  },
  "schemaVersion": "3.0.23",
  "updatedAt": "2020-04-02T09:58:15.223Z",
  "networkType": "ethereum",
  "devdoc": {
    "methods": {}
  },
  "userdoc": {
    "methods": {}
  }
}